:020000040800F2
:1000000000000120C9770008117800081178000865
:10001000117800081178000811780008000000002D
:10002000000000000000000000000000117800083F
:1000300011780008000000001178000883590008BA
:10004000117800081178000811780008117800086C
:100050001178000811780008755B00087B5B0008C8
:10006000815B0008875B00088D5B00081178000841
:10007000117800081178000811780008117800083C
:10008000117800081178000811780008117800082C
:10009000117800081178000811780008935B0008B7
:1000A000117800080552000811780008195200085C
:1000B0001D5200083152000845520008117800080E
:1000C00011780008117800081178000811780008EC
:1000D00011780008A9690008C1690008DD690008F5
:1000E000BB5B00081178000811780008117800083F
:1000F0009552000811780008A952000811780008EC
:100100001178000811780008595200081178000889
:10011000F9690008116A00086D5200088152000850
:10012000117800081178000811780008117800088B
:1001300000000000000000000000000000000000BF
:1001400000000000000000000000000000000000AF
:10015000000000000000000000000000000000009F
:10016000000000000000000000000000000000008F
:10017000000000000000000000000000000000007F
:10018000000000000000000000000000000000006F
:10019000000000000000000000000000000000005F
:1001A000000000000000000000000000000000004F
:1001B000000000000000000000000000000000003F
:1001C000000000000000000000000000000000002F
:1001D000000000000000000000000000000000001F
:0401E0005FF8E0F1F3
:1001E800034613F8012B002AFBD1181A013870476F
:1001F80081F0004102E000BF83F0004330B54FEAD0
:1002080041044FEA430594EA050F08BF90EA020F3C
:100218001FBF54EA000C55EA020C7FEA645C7FEACF
:10022800655C00F0E2804FEA5454D4EB5555B8BFF2
:100238006D420CDD2C4480EA020281EA030382EA63
:10024800000083EA010180EA020281EA0303362DF5
:1002580088BF30BD11F0004F4FEA01314FF4801CC8
:100268004CEA113102D0404261EB410113F0004FDA
:100278004FEA03334CEA133302D0524263EB430391
:1002880094EA050F00F0A780A4F10104D5F1200E2F
:100298000DDB02FA0EFC22FA05F2801841F100018A
:1002A80003FA0EF2801843FA05F359410EE0A5F15E
:1002B80020050EF1200E012A03FA0EFC28BF4CF08F
:1002C800020C43FA05F3C01851EBE37101F0004545
:1002D80007D54FF0000EDCF1000C7EEB00006EEB52
:1002E8000101B1F5801F1BD3B1F5001F0CD34908DC
:1002F8005FEA30004FEA3C0C04F101044FEA445233
:1003080012F5800F80F09A80BCF1004F08BF5FEAB9
:10031800500C50F1000041EB045141EA050130BD99
:100328005FEA4C0C404141EB0101013C28BFB1F5AB
:10033800801FE9D291F0000F04BF01460020B1FAF6
:1003480081F308BF2033A3F10B03B3F120020CDAC9
:100358000C3208DD02F1140CC2F10C0201FA0CF0A7
:1003680021FA02F10CE002F11402D8BFC2F1200C0C
:1003780001FA02F120FA0CFCDCBF41EA0C019040C2
:10038800E41AA2BF01EB0451294330BD6FEA04040B
:100398001F3C1CDA0C340EDC04F11404C4F12002F6
:1003A80020FA04F001FA02F340EA030021FA04F308
:1003B80045EA030130BDC4F10C04C4F1200220FA5F
:1003C80002F001FA04F340EA0300294630BD21FA9D
:1003D80004F0294630BD94F0000F83F4801306BF63
:1003E80081F480110134013D4EE77FEA645C18BF57
:1003F8007FEA655C29D094EA050F08BF90EA020FEE
:1004080005D054EA000C04BF1946104630BD91EAE5
:10041800030F1EBF0021002030BD5FEA545C05D1E8
:100428004000494128BF41F0004130BD14F5800427
:100438003CBF01F5801130BD01F0004545F0FE419B
:1004480041F470014FF0000030BD7FEA645C1ABFD0
:10045800194610467FEA655C1CBF0B46024650EA07
:10046800013406BF52EA033591EA030F41F4002133
:1004780030BD00BF90F0000F04BF0021704730B5B9
:100488004FF4806404F132044FF000054FF000018E
:1004980050E700BF90F0000F04BF0021704730B54F
:1004A8004FF4806404F1320410F0004548BF404224
:1004B8004FF000013EE700BF42004FEAE2014FEA79
:1004C80031014FEA02701FBF12F07F4393F07F4F54
:1004D80081F06051704732F07F4208BF704793F057
:1004E8007F4F04BF41F40021704730B54FF460746A
:1004F80001F0004521F000411CE700BF50EA01026D
:1005080008BF704730B54FF000050AE050EA010215
:1005180008BF704730B511F0004502D5404261EB85
:1005280041014FF4806404F132045FEA915C3FF4C6
:10053800D8AE4FF003025FEADC0C18BF03325FEA63
:10054800DC0C18BF033202EBDC02C2F1200300FA14
:1005580003FC20FA02F001FA03FE40EA0E0021FA39
:1005680002F11444BDE600BF70B54FF0FF0C4CF427
:10057800E06C1CEA11541DBF1CEA135594EA0C0FD9
:1005880095EA0C0F00F0DEF82C4481EA030621EA14
:100598004C5123EA4C5350EA013518BF52EA03354F
:1005A80041F4801143F4801338D0A0FB02CE4FF001
:1005B8000005E1FB02E506F00042E0FB03E54FF031
:1005C8000006E1FB03569CF0000F18BF4EF0010E29
:1005D800A4F1FF04B6F5007F64F5407404D25FEA25
:1005E8004E0E6D4146EB060642EAC62141EA5551D8
:1005F8004FEAC52040EA5E504FEACE2EB4F1FD0C1A
:1006080088BFBCF5E06F1ED8BEF1004F08BF5FEA97
:10061800500E50F1000041EB045170BD06F0004649
:1006280046EA010140EA020081EA0301B4EB5C04F6
:10063800C2BFD4EB0C0541EA045170BD41F48011EE
:100648004FF0000E013C00F3AB8014F1360FDEBF13
:10065800002001F0004170BDC4F10004203C35DAEF
:100668000C341BDC04F11404C4F1200500FA05F372
:1006780020FA04F001FA05F240EA020001F0004213
:1006880021F0004110EBD37021FA04F642EB060189
:100698005EEA430E08BF20EAD37070BDC4F10C04B3
:1006A800C4F1200500FA04F320FA05F001FA04F277
:1006B80040EA020001F0004110EBD37041F1000163
:1006C8005EEA430E08BF20EAD37070BDC4F120056E
:1006D80000FA05F24EEA020E20FA04F301FA05F2D6
:1006E80043EA020321FA04F001F0004121FA04F27E
:1006F80020EA020000EBD3705EEA430E08BF20EA4E
:10070800D37070BD94F0000F0FD101F00046400087
:1007180041EB010111F4801F08BF013CF7D041EA09
:10072800060195F0000F18BF704703F0004652000D
:1007380043EB030313F4801F08BF013DF7D043EADE
:100748000603704794EA0C0F0CEA135518BF95EA94
:100758000C0F0CD050EA410618BF52EA4306D1D11B
:1007680081EA030101F000414FF0000070BD50EA3A
:10077800410606BF1046194652EA430619D094EAC4
:100788000C0F02D150EA013613D195EA0C0F05D1AE
:1007980052EA03361CBF104619460AD181EA030102
:1007A80001F0004141F0FE4141F470014FF00000BA
:1007B80070BD41F0FE4141F4780170BD70B54FF055
:1007C800FF0C4CF4E06C1CEA11541DBF1CEA1355D5
:1007D80094EA0C0F95EA0C0F00F0A7F8A4EB0504B7
:1007E80081EA030E52EA03354FEA013100F08880AE
:1007F8004FEA03334FF0805545EA131343EA126377
:100808004FEA022245EA111545EA10654FEA00262B
:100818000EF000419D4208BF964244F1FD0404F5E4
:10082800407402D25B084FEA3202B61A65EB030540
:100838005B084FEA32024FF480104FF4002CB6EBFD
:10084800020E75EB030E22BFB61A754640EA0C007D
:100858005B084FEA3202B6EB020E75EB030E22BFBD
:10086800B61A754640EA5C005B084FEA3202B6EBFE
:10087800020E75EB030E22BFB61A754640EA9C00BD
:100888005B084FEA3202B6EB020E75EB030E22BF8D
:10089800B61A754640EADC0055EA060E18D04FEA4B
:1008A800051545EA16754FEA06164FEAC30343EAEB
:1008B80052734FEAC2025FEA1C1CC0D111F4801FB8
:1008C8000BD141EA00014FF000004FF0004CB6E7B1
:1008D80011F4801F04BF01430020B4F1FD0C88BF50
:1008E800BCF5E06F3FF6AFAEB5EB030C04BFB6EB5B
:1008F800020C5FEA500C50F1000041EB045170BD4E
:100908000EF0004E4EEA113114EB5C04C2BFD4EB7A
:100918000C0541EA045170BD41F480114FF0000EFE
:10092800013C90E645EA060E8DE60CEA135594EA7A
:100938000C0F08BF95EA0C0F3FF43BAF94EA0C0F7D
:100948000AD150EA01347FF434AF95EA0C0F7FF4F2
:1009580025AF104619462CE795EA0C0F06D152EA46
:1009680003353FF4FDAE1046194622E750EA41062A
:1009780018BF52EA43067FF4C5AE50EA41047FF43B
:100988000DAF52EA43057FF4EBAE12E74FF0FF3CA0
:1009980006E000BF4FF0010C02E000BF4FF0010C71
:1009A8004DF804CD4FEA410C7FEA6C5C4FEA430CEA
:1009B80018BF7FEA6C5C1BD001B050EA410C0CBF39
:1009C80052EA430C91EA030F02BF90EA020F00209B
:1009D800704710F1000F91EA030F58BF994208BF02
:1009E80090422CBFD8176FEAE37040F001007047BF
:1009F8004FEA410C7FEA6C5C02D150EA013C07D116
:100A08004FEA430C7FEA6C5CD6D152EA033CD3D060
:100A18005DF8040B704700BF8446104662468C465A
:100A28001946634600E000BF01B5FFF7B7FF00288D
:100A380048BF10F1000F01BD4DF808EDFFF7F4FFB6
:100A48000CBF012000205DF808FB00BF4DF808ED41
:100A5800FFF7EAFF34BF012000205DF808FB00BF64
:100A68004DF808EDFFF7E0FF94BF012000205DF886
:100A780008FB00BF4DF808EDFFF7CEFF94BF01203B
:100A880000205DF808FB00BF4DF808EDFFF7C4FF34
:100A980034BF012000205DF808FB00BF4FEA410C7D
:100AA8007FEA6C5C02D150EA013C0AD14FEA430C60
:100AB8007FEA6C5C02D152EA033C02D14FF000009D
:100AC80070474FF0010070474FEA410212F50012DB
:100AD80015D211D56FF47873B3EB625212D94FEA7D
:100AE800C12343F0004343EA505311F0004F23FA67
:100AF80002F018BF404270474FF00000704750EABC
:100B0800013005D111F0004008BF6FF00040704778
:100B18004FF00000704700BF4A0011D212F50012D2
:100B280011D20DD56FF47873B3EB62520ED44FEA3D
:100B3800C12343F0004343EA505323FA02F07047BD
:100B48004FF00000704750EA013002D14FF0FF30FB
:100B580070474FF0000070474FEA4102B2F1E0439E
:100B680024BFB3F5001CDCF1FE5C0DD901F0004C8C
:100B78004FEAC0024CEA5070B2F1004F40EB8300DC
:100B880008BF20F00100704711F0804F21D113F108
:100B98003872BCBF01F00040704741F480114FEA41
:100BA8005252C2F11802C2F1200C10FA0CF320FACA
:100BB80002F018BF40F001004FEAC1234FEAD323E7
:100BC80003FA0CFC40EA0C0023FA02F34FEA430351
:100BD800CCE77FEA625307D150EA01331EBF4FF0DA
:100BE800FE4040F44000704701F0004040F0FE40F5
:100BF80040F40000704700BF80F0004002E000BFF2
:100C080081F0004142001FBF5FEA410392EA030FEF
:100C18007FEA226C7FEA236C6AD04FEA1262D2EB39
:100C28001363C1BFD218414048404140B8BF5B423E
:100C3800192B88BF704710F0004F40F4000020F0D7
:100C48007F4018BF404211F0004F41F4000121F0ED
:100C58007F4118BF494292EA030F3FD0A2F1010237
:100C680041FA03FC10EB0C00C3F1200301FA03F175
:100C780000F0004302D5494260EB4000B0F5000F98
:100C880013D3B0F1807F06D340084FEA310102F157
:100C98000102FE2A51D2B1F1004F40EBC25008BF09
:100CA80020F0010040EA03007047490040EB0000D3
:100CB800013A28BFB0F5000FEDD2B0FA80FCACF1D4
:100CC800080CB2EB0C0200FA0CF0AABF00EBC25001
:100CD80052421843BCBFD0401843704792F0000FEF
:100CE80081F4000106BF80F400000132013BB5E742
:100CF8004FEA41037FEA226C18BF7FEA236C21D0B8
:100D080092EA030F04D092F0000F08BF084670471C
:100D180090EA010F1CBF0020704712F07F4F04D1EA
:100D2800400028BF40F00040704712F100723CBFFD
:100D380000F50000704700F0004343F0FE4040F427
:100D4800000070477FEA226216BF08467FEA2363E5
:100D58000146420206BF5FEA412390EA010F40F4D0
:100D6800800070474FF0000304E000BF10F000431C
:100D780048BF40425FEA000C08BF704743F0964303
:100D880001464FF000001CE050EA010208BF70471E
:100D98004FF000030AE000BF50EA010208BF7047A5
:100DA80011F0004302D5404261EB41015FEA010CBA
:100DB80002BF84460146002043F0B64308BFA3F1B2
:100DC8008053A3F50003BCFA8CF2083AA3EBC25394
:100DD80010DB01FA02FC634400FA02FCC2F12002B3
:100DE800BCF1004F20FA02F243EB020008BF20F0EA
:100DF8000100704702F1200201FA02FCC2F1200250
:100E080050EA4C0021FA02F243EB020008BF20EA44
:100E1800DC7070474FF0FF0C1CEAD0521EBF1CEA72
:100E2800D15392EA0C0F93EA0C0F6FD01A4480EA60
:100E3800010C400218BF5FEA41211ED04FF0006349
:100E480043EA501043EA5111A0FB01310CF0004075
:100E5800B1F5000F3EBF490041EAD3715B0040EA9B
:100E6800010062F17F02FD2A1DD8B3F1004F40EB6B
:100E7800C25008BF20F00100704790F0000F0CF03E
:100E8800004C08BF49024CEA502040EA51207F3A02
:100E9800C2BFD2F1FF0340EAC250704740F40000DD
:100EA8004FF00003013A5DDC12F1190FDCBF00F0CE
:100EB80000407047C2F10002410021FA02F1C2F17C
:100EC800200200FA02FC5FEA310040F1000053EA18
:100ED8004C0308BF20EADC70704792F0000F00F066
:100EE800004C02BF400010F4000F013AF9D040EA6C
:100EF8000C0093F0000F01F0004C02BF490011F400
:100F0800000F013BF9D041EA0C018FE70CEAD153FD
:100F180092EA0C0F18BF93EA0C0F0AD030F0004C7D
:100F280018BF31F0004CD8D180EA010000F0004031
:100F3800704790F0000F17BF90F0004F084691F0EF
:100F4800000F91F0004F14D092EA0C0F01D1420229
:100F58000FD193EA0C0F03D14B0218BF084608D1F2
:100F680080EA010000F0004040F0FE4040F400003C
:100F7800704740F0FE4040F4400070474FF0FF0CCF
:100F88001CEAD0521EBF1CEAD15392EA0C0F93EA16
:100F98000C0F69D0A2EB030280EA010C49024FEA68
:100FA800402037D04FF0805343EA111143EA101321
:100FB8000CF000408B4238BF5B0042F17D024FF4D9
:100FC800000C8B4224BF5B1A40EA0C00B3EB510FB4
:100FD80024BFA3EB510340EA5C00B3EB910F24BF9D
:100FE800A3EB910340EA9C00B3EBD10F24BFA3EB22
:100FF800D10340EADC001B0118BF5FEA1C1CE0D1EA
:10100800FD2A3FF650AF8B4240EBC25008BF20F09C
:10101800010070470CF0004C4CEA50207F32C2BFF0
:10102800D2F1FF0340EAC250704740F400004FF08D
:101038000003013A37E792F0000F00F0004C02BFBE
:10104800400010F4000F013AF9D040EA0C0093F088
:10105800000F01F0004C02BF490011F4000F013BE2
:10106800F9D041EA0C0195E70CEAD15392EA0C0F4A
:1010780008D142027FF47DAF93EA0C0F7FF470AF82
:10108800084676E793EA0C0F04D14B023FF44CAFC5
:1010980008466EE730F0004C18BF31F0004CCAD15A
:1010A80030F000427FF45CAF31F000437FF43CAF96
:1010B8005FE700BF4FF0FF3C06E000BF4FF0010CB8
:1010C80002E000BF4FF0010C4DF804CD4FEA40029A
:1010D8004FEA41037FEA226C18BF7FEA236C11D0E4
:1010E80001B052EA530C18BF90EA010F58BFB2EB97
:1010F800030088BFC81738BF6FEAE17018BF40F017
:10110800010070477FEA226C02D15FEA402C05D1CA
:101118007FEA236CE4D15FEA412CE1D05DF8040B4F
:10112800704700BF844608466146FFE70FB5FFF7E2
:10113800C9FF002848BF10F1000F0FBD4DF808ED9A
:10114800FFF7F4FF0CBF012000205DF808FB00BF8B
:101158004DF808EDFFF7EAFF34BF012000205DF8E5
:1011680008FB00BF4DF808EDFFF7E0FF94BF012032
:1011780000205DF808FB00BF4DF808EDFFF7D2FF2F
:1011880094BF012000205DF808FB00BF4DF808ED72
:10119800FFF7C8FF34BF012000205DF808FB00BF3F
:1011A80042000ED2B2F1FE4F0BD34FF09E03B3EBC9
:1011B800126209D44FEA002343F0004323FA02F0F5
:1011C80070474FF00000704712F1610F01D14202E1
:1011D80002D14FF0FF3070474FF00000704700BF5A
:1011E80010B5054C237833B9044B13B10448AFF359
:1011F80000800123237010BDA00000200000000023
:10120800C097000808B5034B1BB103490348AFF367
:10121800008008BD00000000A4000020C09700085E
:1012280038B5332006F056FC051E18BF01250446C4
:1012380006F090FC084A1378AB420BD054B107492A
:101248000B68C31AB3F5FA7F04D9054C0860236804
:1012580001332360157038BDD8000020DC00002061
:101268001003002038B5312006F034FC051E18BFE5
:101278000125044606F06EFC084A1378AB420BD0F1
:1012880054B107490B68C31AB3F5FA7F04D9054C62
:101298000860236801332360157038BDD000002032
:1012A800D40000201803002038B5302006F012FCC6
:1012B800051E18BF0125044606F04CFC084A1378A1
:1012C800AB420BD054B107490B68C31AB3F5FA7F88
:1012D80004D9054C0860236801332360157038BDB4
:1012E800C8000020CC0000201403002010B506F030
:1012F8002FFC094C236898420DD306F029FC0530D1
:101308002060322006F0E6FB012818BF0022034BBC
:101318000CBF18701A7010BD740200200C03002056
:10132800012A02D1016000207047022A05D0032A51
:10133800F9D0002AF7D10260F5E70B680360F2E7FD
:1013480003681847836810B5044613B103220146A1
:101358009847204610BD00007FB500260446354654
:10136800A368B34220D82046144906F038F80F2D58
:1013780003D82046124906F032F81022294601A85F
:1013880005F0EAFF01A9204606F018F801A805F0C3
:101398003FFF20460B4906F022F821460A4804B0D0
:1013A800BDE8704005F0A6BF3146204606F032F889
:1013B800037801361D44EDB2D2E700BFD897000884
:1013C800DC970008DE9700088C02002070B51D4EDF
:1013D8001D4D34683CB321464B2006F045FA06F013
:1013E800B7FB2B68984219D906F0B2FB336800F5B1
:1013F8007A70002B154CACBF0021012128601E20FB
:1014080006F02EFB2368022B09DD01213B2006F0A4
:1014180027FB2368132B01DC0133236070BDDB0736
:10142800F3D50021F2E706F093FB084B214628602C
:101438003B201C6006F014FB2146BDE870404B20A1
:1014480006F012BAD00200206C02002068020020C8
:10145800002170B51F4E204C3368204D8B422170FF
:101468000CD1296841B91E4A13680133092B13604E
:1014780002D9012311602370012100E0FCDA392030
:1014880006F0EEFA31684D200029B8BF4942C1F193
:10149800FF0106F0E9F92178382081F0010106F012
:1014A800DFFA2B681D20002BACBF0021012106F0BC
:1014B800D7FA296849200029B8BF4942C1F1FF017C
:1014C80006F0D2F921781C20BDE8704081F00101B6
:1014D80006F0C6BAD8020020A5020020D4020020D7
:1014E8008802002008B5C72006F0A8F9FFF73AFCE3
:1014F800FEF7E2FF00220B4BFFF760F900220A4BD0
:10150800FEF77CFEFFF728FB084B09491860FFF738
:101518003DFE003818BF0120064B1A78824218BFDA
:10152800187008BD00003940000008400003002082
:101538000000E040A40200202DE9F34706F008FB74
:10154800934B944D1B68DFF8508203F59C4320337E
:10155800984284BF0022914B4FF0CF0088BF1A7089
:1015680006F06CF9FFF7FEFBFEF7A6FF00228C4B96
:10157800FFF724F900228B4BFEF740FEFFF7ECFA49
:10158800894B0446186089492868FFF743FCFEF731
:1015980093FF064620460F46FEF78EFF7AA3D3E94F
:1015A8000023FEF7E1FF02460B4630463946FEF7B8
:1015B80025FEFFF7D1FA2860C72006F03FF9FFF7AC
:1015C800D1FBFEF779FF0022794BFFF7F7F80022ED
:1015D800784BFEF711FEFFF7BFFA774B774D18608F
:1015E8004E2006F077FA003818BF0120744B1870A7
:1015F8004A2006F06FFAB0FA80F0724B4009187072
:10160800C12006F01BF9704B04461860674928682A
:10161800FFF700FCFEF750FF064620460F46FFF78F
:10162800A5FBFEF749FF58A3D3E90023FEF79CFF6B
:1016380002460B4630463946FEF7E0FDFFF78CFAC6
:1016480062492860FFF7A2FD003818BF0120604BEF
:10165800604C1870C32006F0F1F8C8F80000C220EA
:1016680006F0ECF82060C42006F0E8F85A4D28602F
:10167800C52006F0E3F8594B18602B68A3F596735C
:10168800002BB8BF5B42962B79DCA0F59673002B34
:10169800B8BF5B42962BD4BF00230123504AD4F82D
:1016A800009013704846FFF761FBDFF838A1054644
:1016B8004FF07C51DAF80000FFF7ACFBFEF7FCFEB8
:1016C800064628460F46FEF7F7FE0022464BFEF771
:1016D8004BFF02460B4630463946FEF78FFDFFF7B3
:1016E8003BFAD8F80080CAF8000004464046FFF7E5
:1016F8003DFB3E4E07464FF07C513068FFF78AFBB2
:10170800FEF7DAFECDE900013846FEF7D5FE0022E5
:10171800354BFEF729FF02460B46DDE90001FEF7CF
:101728006DFDFFF719FA6FF4A5729144B9F5C77FFB
:10173800306005D96FF4A5739844B8F5C77F03D80E
:101748002C46CAF80050376029492046FFF758FA56
:10175800284920F00040FFF719FD58B124493068A6
:10176800FFF74EFA234920F00040FFF70FFD00383D
:1017780018BF0120204B187002B0BDE8F087012384
:101788008CE700BFAFF3008000000000E07A843FE0
:101798007402002004030020BC0200200C03002077
:1017A800000039400000084008030020A4707D3F75
:1017B8000000244000004940DC020020B402002060
:1017C800A6020020CC020020B802002000004842F7
:1017D800B1020020C0020020C8020020C40200207C
:1017E800A7020020AC0200200000E03FA802002071
:1017F8000080044400004843B002002000000000BC
:101808002DE9F047CA2006F019F8FFF7ABFAFEF702
:1018180053FE65A3D3E9002306F0D0FF0022684BEE
:10182800FEF7A2FEFFF798F9DFF89881DFF898A194
:10183800C8F80000CB2006F001F8FFF793FAFEF78E
:101848003BFE59A3D3E9002306F0B8FF00225C4B06
:10185800FEF78AFEFFF780F9CAF80000CC2005F0F1
:10186800EDFFFFF77FFAFEF727FE4FA3D3E900232A
:1018780006F0A4FF0022554BFEF776FEFFF76CF941
:10188800534F544B0646186053493868FFF7C2FA5D
:10189800FEF712FE0446D8F800000D46FEF70CFECF
:1018A80043A3D3E90023FEF75FFE02460B4620461A
:1018B8002946FEF7A3FCFFF74FF93860474F464922
:1018C80005463868FFF7A6FAFEF7F6FD8046DAF80F
:1018D80000008946FEF7F0FD35A3D3E90023FEF7A3
:1018E80043FE02460B4640464946FEF787FCFFF793
:1018F80033F938603A4F3B4904463868FFF78AFAAB
:10190800FEF7DAFD804630468946FEF7D5FD2AA364
:10191800D3E90023FEF728FE02460B464046494617
:10192800FEF76CFCFFF718F92F493860FFF72EFC1B
:1019380058B94FF080412846FFF728FC28B94FF0E6
:1019480080412046FFF722FC40B10122274B1A7044
:1019580006F0FEF8264B00F5FA601860CE2005F078
:101968006DFFFFF7FFF9234D234B044618601D490F
:101978002868FFF74FFAFEF79FFD064620460F46F8
:10198800FEF79AFD0CA3D3E90023FEF7EDFD02460E
:101998000B4630463946FEF731FCFFF7DDF8286084
:1019A800BDE8F087AFF30080555555555555D53FDF
:1019B800000000009A99B93F00000000E07A843FD7
:1019C8000000D03FEC020020E80200200000E03FC9
:1019D800E4020020F40200206666663FE002002070
:1019E800F0020020A4707D3F0000A040CD0200203E
:1019F80080020020F8020020FC020020F0B500243C
:101A080085B000213C2005F0C1FF00213D2005F0F4
:101A1800BDFF4FF4FA6006F09FF84FF496416C480A
:101A280000F09EFF06224FF4E1316A4805F0A6FA5D
:101A380000214E2005F0AAFF0021C12005F0A6FFD5
:101A48000021CF2005F0A2FF0021C72005F09EFF4E
:101A58000021CE2005F09AFF0021C32005F096FF53
:101A68000021C22005F092FF0021C42005F08EFF5E
:101A78000021C52005F08AFF44F6206005F0D8FE55
:101A88000021CC2005F082FF01214B2005F07EFFCC
:101A9800514F02214A2005F079FF0221332005F039
:101AA80075FFD7F8CC004D4E431C4D4D4D4B18BF1C
:101AB800332002226946009301940396029505F0AB
:101AC8001DFB6846FFF73EFC01213B2005F05EFF49
:101AD80001211F2005F05AFF01211E2005F056FFA5
:101AE80001211E2005F0BCFF21461F2005F0B8FF8C
:101AF8002146CA2005F04AFF01214D2005F046FF86
:101B08000121382005F042FF0121392005F03EFF70
:101B18000221312005F03AFFD7F8C400324B421CAD
:101B280018BF3120022269460093CDE9025601947C
:101B380005F0E4FA6846FFF705FC2146CB2005F0DE
:101B480025FF0121492005F021FF01211C2005F076
:101B58001DFF01211D2005F019FF0221302005F08D
:101B680015FFD7F8C000214B411C18BF30200222B6
:101B780069460093CDE90256019405F0BFFA68461C
:101B8800FFF7E0FB0221322005F000FF012137209A
:101B980005F0FCFE2146372005F062FFD7F8C800A3
:101BA800134B471C694618BF322002220093CDE927
:101BB8000256019405F0A2FA6846FFF7C3FB0D4AE6
:101BC8000D490E4805B0BDE8F04000F08FBB00BFDE
:101BD800F8010020E00000205CA00008491300087C
:101BE80029130008291200086D120008B112000814
:101BF800F512000800E78F01808D5B003403002098
:101C08002DE9FF41002605460F46B0463446AB682D
:101C1800A34201D8002421E02146284605F0FAFB1A
:101C280003782C2B03D0AB68013BA3421DD1BE42E5
:101C380018D12146284605F0EDFB037842462C2BA7
:101C480018BF01342346294601A805F00DFC01A858
:101C580005F030FC044601A805F0DAFA204604B085
:101C6800BDE8F081013604F101080134CFE7000036
:101C7800F0B50121CDB02F48FFF7C2FF2E4B02214E
:101C880018602C48FFF7BCFF2C4B0321186029482B
:101C9800FFF7B6FF2A4B186005F05AFF294B00F6EC
:101CA800B830186072B6284B28491B68284A0B6060
:101CB800284B1B681360284B1868284B186062B6BD
:101CC800D1F800C0106826491A68264B264F0D68BF
:101CD8001E681A60254B3C68451BC7F800C00860A1
:101CE80007AF1868ACEB0404961BFEF7E5FB02236C
:101CF8000422009705F0E4FB1D4B1E4A1B78FA21CD
:101D080005931D4B0DA81B7804931C4B1B78CDE93C
:101D18000056CDE90273234606F0BAF80DA90AA8C1
:101D280005F0B8FA0AA8FFF717FB0AA805F070FA39
:101D38004DB0F0BD98020020D4020020D802002047
:101D4800D002002084020020180300203003002065
:101D58002C03002014030020100300202803002077
:101D6800200300201C03002024030020000300207F
:101D78000C030020E1970008B0020020A702002011
:101D8800034B9B68052B01D9FFF772BF704700BF53
:101D9800980200207FB50749684605F0EEFA6946C3
:101DA80003A805F0B6FA03A8FFF7D6FA03A805F0CA
:101DB8002FFAFEE7F89700087FB50C49684605F04A
:101DC800DCFA68460A4905F00AFB694603A805F0EB
:101DD800A0FA03A8FFF7C0FA03A805F019FA6846A5
:101DE80005F016FA07B05DF804FB00BFFA97000883
:101DF800FD9700082DE9F047384BE2B018680BACA6
:101E0800FEF75AFB01220223009405F059FB344BDC
:101E18000EAD1868FEF750FB01220223009505F06D
:101E28004FFB304B11AE1868FEF746FB0122022328
:101E3800009605F045FB2C4B14AF1868FEF73CFBE9
:101E480001220223009705F03BFB284B0DF15C09AA
:101E58001868FEF731FB01220223CDF8009005F047
:101E68002FFB234B0DF168081868FEF725FB0122AC
:101E78000223CDF8008005F023FB1E4B0DF1740AF8
:101E88001868FEF719FB02230122CDF800A005F01F
:101E980017FBCDE9089ACDE90678174B174A1B7846
:101EA800FA210593164B23A81B780493154B1B782E
:101EB8000393154B1B780095CDE90163234605F084
:101EC800E7FF23A920A805F0E5F920A8FFF744FAC1
:101ED80020A805F09DF962B0BDE8F087080300204E
:101EE80000030020F8020020F0020020E002002099
:101EF800E4020020DC020020CD0200200F98000838
:101F0800B1020020A7020020B00200202DE9F04114
:101F1800404E07464049414886B005F00CFAB36880
:101F2800032B06D92C21304605F099FA041E03DC50
:101F38009FB306B0BDE8F0814FF00008454629463A
:101F4800304605F067FA03782A4601354344AC4227
:101F58005FFA83F8F3D1931D68462E49023205F0E3
:101F680083FA10220021009805F088FF404504D02C
:101F780087B1684605F04CF9DBE72346002225497E
:101F880003A805F071FA234803A905F0CCF903A8C2
:101F980005F03EF9684605F03BF900211D4805F0BB
:101FA80039FA0378412BC4D101211A4805F032FAD5
:101FB8000378542BBDD10221164805F02BFA03787B
:101FC8002B2BB6D10321134805F024FA0378562B9E
:101FD80001D1FFF7F1FE03210E4805F01BFA037843
:101FE8004D2B01D1FFF7CCFE03210A4805F012FA68
:101FF8000378532B01D1FFF7FDFE0321054805F0B7
:1020080009FA0378592B94D1B368042B91D8FFF7B8
:10201800C1FE00BF98020020E09700088C02002053
:1020280007B50C490C4805F035F90A490B4805F085
:1020380031F9002309222921094800F0A3FB502384
:10204800352236210093074804F046FE03B05DF8B8
:1020580004FB00BFE0970008980200208C020020D3
:10206800F8010020E000002010B52C4800F085F9A8
:1020780038B305F06DFD00F10A04284800F07DF939
:10208800F8B105F065FDA0421BD2244800F05EF9C6
:10209800C1B20D2901D00A290BD10120FFF736FF63
:1020A8001F491E4804F0E6FF1E491F4805F043F982
:1020B800E3E71D488368B3F5FA7FDED205F082F9BD
:1020C800DBE71A4804F001FD38B305F041FD00F1E3
:1020D8000A04164804F0F9FCF8B105F039FDA042ED
:1020E8001BD2124804F08EFFC1B20D2901D00A2973
:1020F8000BD10120FFF70AFF09490C4804F0BAFF89
:102108000849094805F017F9E3E707488368B3F574
:10211800FA7FDED205F056F9DBE710BDF8010020A2
:102128008C020020E097000898020020E0000020C0
:10213800F8B5324C23788BB905F00AFD304D2B6881
:1021480098422AD905F004FD14302860FFF780F979
:10215800FFF73CF9FFF7C6F901232370FFF784FF67
:102168002678284D6EB905F0F3FC274F3B68984256
:1021780023D905F0EDFC00F57A7038602E60012354
:10218800237005F0E5FC002323702B681F480133FA
:102198002B60BDE8F84000F0CBB82578002DDDD1E4
:1021A80005F0D6FC1A4B1B689842D7D9194B1D600D
:1021B800194B1D60194B1D60CEE72378002BE0D129
:1021C80005F0C6FC164E3368984206D905F0C0FCE7
:1021D80064303060FFF7B0F9D1E72378002BD0D115
:1021E80005F0B6FC0F4E33689842CAD905F0B0FC2A
:1021F80064303060FFF704FBC1E700BFBC0000207B
:1022080070020020C0000020C40000203403002019
:1022180084020020D8020020D4020020D00200202E
:102228007C0200207802002008B5054800F078F903
:10223800044804F0EDFFBDE80840034804F0E8BF97
:10224800F80100208C02002098020020214B08464B
:102258001B782DE9F04723B11F4BA1F164029A4284
:1022680036D8FEF77FFD1D49FEF788FE1C49FEF7AC
:10227800D1FD002407464FF0040ADFF868905FFAA2
:1022880084F80AFA08F080B2FEF770FD0146384675
:10229800FEF774FE4946264605460134FEF776FFEA
:1022A8000028ECD1F6B2062E12D845F255530E4C42
:1022B80028462360C4F80480FEF772FF0138C0F393
:1022C8000B00A060E3689B07FCD14AF6AA232360B1
:1022D800BDE8F087350300209CE68F01002474498F
:1022E80000401C4700F07F45003000400C4B10B404
:1022F800A1F164049C4211D80A4B5C6A44F00104C1
:102308005C625C6AA407FCD54CF6CC44064B1C60A6
:102318000124064B1C7010BCFFF798BF10BC704717
:102328009CE68F0100100240003000403503002079
:10233800034B1B781BB14AF6AA22024B1A6070475E
:1023480035030020003000400020704790F86A20D4
:1023580090F869309A420DD090F86A30034493F8A7
:10236800292090F86A30013303F03F0380F86A307F
:10237800104670474FF0FF30704790F8693090F87A
:102388006A2003F14000801A434203F03F0300F043
:102398003F0058BF5842704772B6002380F8693032
:1023A80080F86A3062B6704790F86A2090F8693011
:1023B8009A421DBF90F86A30C01890F829004FF073
:1023C800FF3070477FB5214D0C462B688B422FD0CC
:1023D8001F4802F0B6FB1E48002C33D002F04EFE18
:1023E80001214FF6FE7204EB4403B0FBF3F696426C
:1023F80020D8174802F0A0FD00223146144802F008
:1024080069FE00221248114602F08AFE0023019359
:10241800104B69460093104B0D4803930F4B0293E2
:1024280002F08DFF029B43B9094802F074FC2C604E
:1024380004B070BD40084900D7E7032269466846E2
:102448009847F1E702F04AFDF1E700BF38030020A2
:102458005C030020692700084913000829130008B5
:1024680090F82810D0E907238907C3F30F234FF00A
:102478000101408A4CBF5361136105F087BA90F897
:102488002830008A13F0020F0CBF0221032105F047
:102498007DBA000090F8283070B55B0704460E46F8
:1024A8000ED50B4D2B6861B1834209D0FFF7E7FFCA
:1024B8004FF0FF32074B1A600222074B1A602C605C
:1024C80070BD8342FCD1FFF7CBFF2E60F8E700BF59
:1024D80050030020000000204803002038B50D4DAF
:1024E80004462B68834213D10B4B19680029FCD191
:1024F80094F828305B0702D52046FFF7CBFF002170
:10250800064B204629601960FFF75CFF012038BDA3
:102518000020FCE75803002054030020500300204B
:1025280010B50446024B0360FFF7D8FF204610BDE4
:102538008098000810B50446FFF7F2FF2046702186
:1025480002F050FF204610BDF8B50446144F386815
:10255800A04222D0134E3368002BFCD108B1FFF7FC
:10256800BDFF01254FF0FF320F4B20461D600F4B7A
:10257800616A1A60FFF726FF94F828303C605B0711
:1025880003D40B4B1C600120F8BD3368002BFAD133
:1025980029462046FFF77EFFF5E70020F4E700BF55
:1025A80058030020540300204803002000000020A6
:1025B8005003002070B5044690F82830184D43F0B9
:1025C800080380F828302B68002BFCD194F82820C9
:1025D800144B4900920741F40071196048BFC94380
:1025E8004FF000064FF0030248BF19600E4B20461B
:1025F8001E600E4B616A1A60FFF7E4FE94F82830FB
:102608005B0703D531462046FFF744FF94F828308E
:10261800012023F0080384F828302C6070BD00BF27
:102628005403002044030020400300204C030020F2
:10263800184A38B51168034601390029116013DCBE
:10264800154D29684C1C09292C600EDCD3E9074379
:102658001248C3F30F230168CD074CBF23616361A0
:10266800032349080160136038BD0121116090F807
:102678002820150703D50022094B1A60F4E7192C06
:10268800F2DD5207F7D5074A12688242F3D1FFF705
:1026980001FFF0E74C030020400300204403002022
:1026A80054030020580300202A4A70B51368013BE0
:1026B800002B13603EDC436981699B68264CDB4331
:1026C80003EA11239BB2B3FA83F3216890F82850E8
:1026D800B1F1FF3F4FEA5313C5F340060AD19E42BA
:1026E80005BF042100230123116004BF1B4A236096
:1026F80013601FE007291EDD9E4216D090F869304E
:1027080090F86A10013303F03F0399421FBF134D3D
:1027180090F869102D6809180BBF45F0010581F87C
:10272800295080F8285080F86930012313604FF051
:10273800FF33236070BD094D9E42286801F10101F5
:102748004FEA500018BF40F0800003232860216042
:10275800CEE700BF48030020000000203C03002013
:1027680008B5064B1A6812B11868FFF79DFF044BAD
:102778001A6812B11868FFF75BFF08BD5003002004
:1027880054030020F8B504460D4600204FF47A7132
:10279800EEB2C4E901016D494F2E216025826282A3
:1027A8000DD86B4951F82610C1F3031106293FD9FA
:1027B8006061674951F8261001F00F0106E005F045
:1027C800C001C02918D0002161610F21614F57F85D
:1027D8002110A161D1B24F2931D85D4850F82100AC
:1027E800C0F30310062875D90020E061584850F856
:1027F800210000F00F0029E0CF2EE4D8564905F05B
:102808003F0751F82770524951F82710C1F30311B7
:1028180006290DD9606105F0C001C029D5D14E49FE
:1028280005F03F0051F82000494951F82010C3E74E
:102838004A484F2E50F821106161BAD9EBE702F0EF
:10284800C000C02829D00020E0610F2057F82000E0
:10285800A5EB020C20620020DCF1000747EB0C0717
:102868005B0043EA870394F8287003F00F0327F00E
:102878000F073B434F2984F86900606284F82830C9
:1028880084F86A00E0662DD8314B53F82100C0F374
:10289800031002F0A9FDB0BBFEE7CF29D3D82E481C
:1028A80002F03F0C50F82CC0294850F82C00C0F317
:1028B800031006280ED90020E06102F0C000C028ED
:1028C800C3D1254802F03F0C50F82CC0204850F8DE
:1028D8002C008EE7DFF884C04F295CF82000E06107
:1028E80084D9EAE702F0C003C02B0AD1CF2908D85F
:1028F800194B02F03F0253F82220154B53F82200DF
:10290800C5E70F20C5E794F828305B071BD44F2E86
:1029180008D80F4B53F82600C0F3031002F064FDEB
:1029280088B9FEE705F0C003C02B0AD1CF2E08D81E
:10293800094B05F03F0553F82520054B53F82200B5
:10294800EAE70F20EAE72046F8BD00BF80980008B4
:102958005CA00008E09800081CA000080C000020FB
:1029680010B590F8283004465B07416209D4FFF798
:1029780077FD2046FFF783FD2046BDE81040FFF7AE
:10298800E3BDFFF76DFD10BD0149024802F090BCA0
:10299800001400405C030020014802F00DBB00BF9A
:1029A8005C0300207047000038B50E4B05461A78C6
:1029B8004FF47A73B3FBF2F30B4A1068B0FBF3F0F1
:1029C80000F000FC044658B90F2D09D802462946E4
:1029D8004FF0FF3000F0A6FB2046044B1D6038BDC9
:1029E8000120FCE70400002034000020080000203B
:1029F800074A08B51368032043F01003136000F07A
:102A08007FFB0020FFF7D0FFFFF7CCFF002008BDB9
:102A180000200240034A044B11681B780B441360E2
:102A2800704700BF0C04002004000020014B186808
:102A3800704700BF0C040020F7B5002604460D4679
:102A48000196FFF7F3FF236807469A68D10508D572
:102A58000120A36A84F8246043F02003A36203B032
:102A6800F0BD5A68D20503D4DB6A13F4700F3DD069
:102A78003D4B02201E6801F08DF823683B4A196916
:102A8800B6FBF0F611423A4A51D1D86839490842A2
:102A98004DD1196911425BD1DA68374B1A420CBF24
:102AA800142329235E43019BB34223D26A1C04D01A
:102AB800002D53D1019BB3420AD3019B01330193EB
:102AC800F1E76E1C13D065B923681B6898070DD40D
:102AD800A36A032043F00403A362002384F824308C
:102AE800BDE7FFF7A3FFC01BA842EDD82268136813
:102AF8009907E6D56FF0120322681360A36A43F4BE
:102B08000073A362936803F46023B3F5602F0CD1BC
:102B1800237B53B9A36A23F48073A362A36ADB04FB
:102B280003D4A36A43F00103A362002097E719695D
:102B3800114203D1D968104A11420BD019690F4AC2
:102B4800114209D1DB6813420CBF5423FC23A9E7C7
:102B58002923A7E75423A5E7FC23A3E7FFF766FF8C
:102B6800C01BA842A6D8A8E7340000202449922414
:102B7800922449122449920092244900499224003F
:102B88000368D86C70470000002373B5019390F870
:102B980024300446012B6CD0012380F824304D6882
:102BA8000268062D086805EB850322D81F26556B99
:102BB800053B9E4025EA060500FA03F32B435363C1
:102BC80009288B6800EB40054FF0070129D9D66822
:102BD8001E3DA94026EA0101AB400B43D360A0F19A
:102BE8001003012B25D90020002384F8243002B0DB
:102BF80070BD0C2D4FF01F0509D8166B233B9D4067
:102C080026EA050500FA03F32B431363D8E7D66ACF
:102C1800413B9D4026EA050500FA03F32B43D362A6
:102C2800CEE71069A94020EA0101AB400B431361CC
:102C3800D9E7114B9A4216D193681B02D3D49368F3
:102C4800102843F400039360CDD10C4B0C4A1B6849
:102C5800B3FBF2F30A2253430193019B002BC2D02A
:102C6800019B013BF8E7A36A012043F02003A3621C
:102C7800BAE70220BBE700BF00240140340000206F
:102C880040420F00806A7047002337B501930368FC
:102C980004469A68D20702D5002003B030BD9A686E
:102CA80042F001029A60144B144A1B68B3FBF2F31A
:102CB8000193019BE3B9FFF7B9FE054623689B68BA
:102CC800DB07E9D4FFF7B2FE401B0228F6D92368D8
:102CD8009B6813F00103F1D1A26A012042F01002AF
:102CE800A262E26A84F8243042F00102E262D4E788
:102CF800019B013BDCE700BF3400002040420F008D
:102D080010B590F824300446012B54D0012380F8E4
:102D18002430FFF7B9FF002849D1A36A274A23F4D2
:102D2800407323F0010343F48073A3622368934242
:102D380004D123494A6812F4702F2ED1A26A22F4D2
:102D48008012A2625A68520541BFA26A22F4405218
:102D580042F48052A262A26A12F480521CBFE26A54
:102D680022F00602E262002284F824206FF00202B8
:102D78001A609A6802F46022B2F5602F13D10F4AE4
:102D8800934205D1A2F58062526812F4702F0AD1DD
:102D98009A6842F4A0029A6010BDA26A42F48012B6
:102DA800A2624A68CFE79A6842F48012F3E70023E8
:102DB80084F82430F0E70220EEE700BF0028014045
:102DC8000024014038B5036804469A68D10701D445
:102DD800002038BD9A6822F001029A60FFF726FEAB
:102DE800054623689B68DB07F2D5FFF71FFE401BEB
:102DF8000228F6D923689B68DA07F2D5A36A01206E
:102E080043F01003A362E36A43F00103E362E0E7DF
:102E1800F8B5044600287BD0836A23B9C36280F8DA
:102E2800243002F0FFFB2046FFF7CCFFA36A13F023
:102E380010036FD100286DD1A26A394E22F488524E
:102E480022F0020242F00202A262D4E90021B24258
:102E5800E56904D1B5F5402F08BF4FF40025277B5D
:102E6800A66841EA4701B6F5807F41EA05013AD0F4
:102E780006F1FF3CDCF1000545EB0C052D0294F84A
:102E880014C0BCF1010F06D17FBBA769013F45EA19
:102E9800473747F400655768B6F5807F27F46947D8
:102EA80045EA0705556097681E4D05EA070545EA96
:102EB8000105956001D0012E02D12369013B1B0554
:102EC800D56A25F470052B43D3629268164B1340DC
:102ED800994213D10023E362A36A23F0030343F06A
:102EE8000103A362F8BD3546C9E7A76A47F0200782
:102EF800A762E76A47F00107E762CCE7A36A23F015
:102F0800120343F01003A362E36A43F00103E36290
:102F18000120E7E7A36A43F01003A362F8E700BFC4
:102F2800003C0140FDF7E1FFFE0E1FFF38B50446E7
:102F3800002850D0836A43F002038362FFF742FF00
:102F48000546002842D16FF01F02236820461A6008
:102F58005968224A0A405A609968214A0A409A6088
:102F6800DA6802F07F42DA601A6902F040421A61B8
:102F780059691C4A11405961996911409961D96987
:102F88001140D961196A11401962596A1140596290
:102F9800996A0A409A62DA6A134902F07F42DA6251
:102FA800DA6A02F07F42DA621A6B02F040421A6370
:102FB8005A6B02F040425A639A6B0A409A639A6BC2
:102FC8000A409A6302F070FBE562A562002384F868
:102FD8002430284638BD0125FBE700BF00003FFF2D
:102FE800F00601FF00F0FFFF0000C0FF10B590F8E9
:102FF80024300446012B11D0012380F82430FFF738
:10300800E1FE38B9A36A23F4885323F0010343F09F
:103018000103A362002384F8243010BD0220FCE7DA
:10302800002373B5019390F824300446012B62D035
:10303800012380F82430FFF7C5FE2046FFF724FE61
:10304800054600282FD1A36A022023F4885323F0D1
:10305800020343F00203A362284B1E6800F09AFDA6
:10306800B6FBF0F676000196019B03BB22689368D5
:1030780043F008039360FFF7D9FC064623689A6873
:10308800110718D49A6842F004029A60FFF7CEFC40
:10309800064623689B685B0723D4A36A23F00303CF
:1030A80043F00103A362002384F8243016E0019B57
:1030B800013B0193D8E7FFF7B9FC801B0A28DDD94B
:1030C80023689B681807D9D5A36A012523F0120342
:1030D80043F01003A362002384F82430284602B08A
:1030E80070BDFFF7A3FC801B0A28D2D923689B6810
:1030F8005A07CED5E8E70225F0E700BF34000020E4
:1031080007490302CA6803F4E06322F4E062120488
:10311800120C134343F0BF6343F40033CB60704792
:1031280000ED00E0154B30B5DC68C4F30224C4F1AF
:103138000703251D042B28BF0423062D4FF0FF3558
:1031480094BF0024033C05FA03F321EA0303A540D6
:1031580022EA0502A340002843EA0203ACBF00F1BB
:103168006040074A4FEA0313DBB2ABBF00F561408A
:1031780000F00F0080F80033135430BD00ED00E07C
:1031880014ED00E0002807DB01234109034A00F0A1
:103198001F00834042F82130704700BF00E100E083
:1031A80000280CDB01220649430900F01F00824079
:1031B800203341F82320BFF34F8FBFF36F8F704741
:1031C80000E100E00138B0F1807F0BD24FF0E0233E
:1031D800F021054A586182F82310002007229861DF
:1031E8001A6170470120704700ED00E0002808DBF5
:1031F80001224309034900F01F008240603341F86F
:103208002320704700E100E0704708B5FFF7FCFF96
:1032180008BD704710B5044650B1437903F0FF026A
:1032280013B90271FFF7F5FF01230020637110BD88
:103238000120FCE710B5044668B1037903F0FF02EA
:1032480013B9427102F06CF90223002023710123A3
:103258002061237110BD0120FCE710B5044640B180
:103268000223037102F0B2F900202061607120711D
:1032780010BD0120FCE7034630B548B3427902206F
:10328800012A16D0187101201A6801F01004156877
:10329800A0402843106069B9116801F03C013C293D
:1032A80003D1516841F001015160012200201A71D7
:1032B800587130BD002C0CBF3C204FF470101168C1
:1032C80001F470118142F0D1516841F00201EBE73D
:1032D8000120EEE7012310B558B1046801F0100190
:1032E800226803FA01F122EA010222600371002038
:1032F80010BD1846FCE713B50024019470B10068AE
:10330800019041B90199083100200A440192019ABB
:10331800136002B010BD01991431F5E70120F8E7F8
:1033280030B503460C4600B3F9B1417902200129B2
:103338001AD040F6FE711871186802F0100205687C
:10334800914025EA0105D4E900142143C0249140A5
:1033580029430160016804FA02F221EA02020260CC
:10336800012200201A71587130BD0120FCE790F845
:1033780021200346022A06D004228263012000226B
:1033880083F8202070470268C06B116821F00E0195
:103398001160116821F00101116001211A6C01FA14
:1033A80002F24260002083F82110E8E708B590F89F
:1033B8002130022B03D004238363012008BD036856
:1033C8001A6822F00E021A601A6822F001021A60C6
:1033D800284A934224D902F56272934219D01432D2
:1033E800934218D01432934217D01432934214BF28
:1033F8004FF480334FF480531F4A5360012380F801
:103408002130002380F82030436B03B19847002017
:10341800D4E70123F0E71023EEE74FF48073EBE7DE
:1034280016498B4216D014318B4215D014318B4279
:1034380014D014318B4214D014318B4214D014316F
:103448008B4214D0934214BF4FF480334FF08073F3
:103458000B4AD2E70123FBE71023F9E74FF4807307
:10346800F6E74FF48053F3E74FF48033F0E74FF477
:103478008013EDE78000024000040240080002408B
:10348800000002402DE9F74F00244FF00F0E2646AA
:10349800DFF89CC1674B00F104080A6832FA06F5A8
:1034A80002D103B0BDE8F08F012505FA06F702EA5C
:1034B800070537EA02027ED14A68032A07D8013A8B
:1034C800022A00F28C80DFE802F09A9FA500122AF7
:1034D80000F09D8071D8112A00F09380FF2D94BFD1
:1034E8008146C1464FEA8602D9F8007088BF203A63
:1034F8000EFA02FA27EA0A0704FA02F21743C9F891
:103508000070D1F8049019F0805F54D0DCF81820CE
:1035180026F0030742F00102CCF81820DCF8182046
:1035280007F1804702F00102019207F5803706F0A3
:10353800030A019A4FEA8A0ABA680EFA0AFB22EAD3
:103548000B0B3D4A904269D002F58062904267D0E9
:1035580002F58062904265D002F58062904263D0A5
:1035680002F58062904261D002F58062904214BFF9
:103578000622052202FA0AF242EA0B02BA609A68A7
:1035880019F4801F14BF2A43AA439A60DA6819F411
:10359800001F14BF2A43AA43DA605A6819F4003F8F
:1035A80014BF2A43AA435A601A6819F4803F14BF0B
:1035B8002A43AA431A6001366FE7DFF880904A452C
:1035C8000DD015D8A9F580194A4508D009F57029F4
:1035D8004A4504D0A9F580194A457FF47FAF8A6827
:1035E800D2B1012A4FF008040CBF0761476175E7A3
:1035F800DFF84C904A45F2D009F58039ECE7CC6801
:103608006CE7CC68043469E7CC68083466E7CC68B2
:103618000C3463E7002461E704245FE70022A9E78C
:103628000122A7E70222A5E70322A3E70422A1E7D4
:103638000010024000040140000801400000221070
:1036480000003110044A08B55169014202D05061A6
:1036580002F076FA08BD00BF000401402DE9F341ED
:10366800054638B30368DB0710D42B689F075ED480
:103678002B68190700F195802B685A0700F1C18063
:10368800EB69002B40F02C81002029E0904C636806
:1036980003F00C03042B07D0636803F00C03082B1A
:1036A8000AD16368DE0307D523689C03DDD56B6800
:1036B800002BDAD1012013E06B68B3F5803F12D1FB
:1036C800236843F480332360FFF7B0F90646236884
:1036D8009803CAD4FFF7AAF9801B6428F7D90320F6
:1036E80002B0BDE8F0819BB9236823F480332360DE
:1036F800236823F480232360FFF798F9064623689C
:103708009903B2D5FFF792F9801B6428F7D9E6E749
:10371800B3F5A02F236803D143F480232360CFE7B8
:1037280023F480332360236823F48023CBE7684C99
:10373800636813F00C0F07D0636803F00C03082BC1
:1037480010D16368DA030DD423689B0702D52B696F
:10375800012BAFD123686A6923F0F80343EAC20357
:10376800236085E72A695B4B6AB101221A60FFF77B
:103778005DF9064623689F07ECD4FFF757F9801BCD
:103788000228F7D9ABE71A60FFF750F90646236815
:1037980098077FF56DAFFFF749F9801B0228F6D926
:1037A8009DE7AA694A4E4B4BE2B10122C3F8802437
:1037B800FFF73CF90446736A9B070DD54FF4FA529C
:1037C800454B1B68B3FBF2F3019300BF019B5A1EE4
:1037D8000192002BF9D14FE7FFF728F9001B0228C7
:1037E800E9D97CE7C3F88024FFF720F90446736A17
:1037F8009F077FF541AFFFF719F9001B0228F6D99B
:103808006DE7334CE369D80024D40127E36943F01A
:103818008053E361E36903F080530093009B2F4ECC
:103828003368D90518D5EB68012B26D1236A43F0F4
:1038380001032362FFF7FAF841F288380646236A43
:103848009B073FD5002F3FF41BAFE36923F080535C
:10385800E36115E70027E2E7336843F480733360D8
:10386800FFF7E4F880463368DA05DCD4FFF7DEF8C2
:10387800A0EB08006428F6D931E7ABB9236A41F216
:10388800883823F001032362236A23F004032362A8
:10389800FFF7CCF80646236A9807D3D5FFF7C6F892
:1038A800801B4045F7D91AE7052B236A03D143F05B
:1038B80004032362BAE723F001032362236A23F097
:1038C8000403B6E7FFF7B2F8801B4045B7D906E70F
:1038D8000010024000004242340000200070004006
:1038E8002A4C626802F00C02082A3ED00022022B01
:1038F800274B1A662CD1FFF799F8064623689901D9
:1039080020D42B6AB3F5803F05D16268A96822F4F8
:1039180000320A436260696A62680B4322F47412D7
:103928001343012263601A4B1A66FFF77FF80546B6
:1039380023689A013FF5A8AEFFF778F8401B0228E4
:10394800F6D9CCE6FFF772F8801B0228D6D9C6E66E
:10395800FFF76CF8054623689B017FF595AEFFF7E6
:1039680065F8401B0228F6D9B9E6012B3FF4A2AE50
:1039780060682B6A00F480329A427FF49BAE6B6ACF
:1039880000F47010C01A18BF0120A9E60010024008
:10399800000042420D4A536803F00C01082912D175
:1039A8000B48C3F38341DB03405C09D55368094ADC
:1039B800C3F340435043084AD35CB0FBF3F070476D
:1039C800064B584370470348704700BF0010024039
:1039D800AE98000800127A00AC98000800093D0073
:1039E8002DE9F0410D46044610B90120BDE8F081EB
:1039F800444A136803F007038B4228D321688E07D3
:103A080030D4CA0743D43F4A136803F00703AB42D4
:103A180065D822683C4D12F0040F6CD1130706D507
:103A28006B68226923F4605343EAC2036B60FFF7B3
:103A3800B1FF6B68354AC3F30313D35CD840344BEA
:103A48001860344B1868FEF7AFFF0020CEE7136804
:103A580023F007030B431360136803F007038B423B
:103A6800C3D1CBE7284B11F0040F1EBF5A6842F4AC
:103A7800E0625A60080742BF5A6842F460525A60CE
:103A88005A68A06822F0F00202435A60B9E76268F7
:103A98001D4E012A33681AD113F4003FA5D073686C
:103AA80041F2883823F0030313437360FEF7BEFF27
:103AB80007467368626803F00C03B3EB820FA2D069
:103AC800FEF7B4FFC01B4045F3D903208EE7022A56
:103AD80002D113F0007FE1E713F0020FDEE713686D
:103AE80023F007032B431360136803F00703AB426B
:103AF8007FF47BAF8DE76B68E16823F4E0630B43E9
:103B08006B608BE7002002400010024028990008F3
:103B18003400002008000020044B054A5B68C3F30A
:103B28000223D35C034A1068D84070470010024053
:103B38002099000834000020044B054A5B68C3F351
:103B4800C223D35C034A1068D84070470010024073
:103B580020990008340000200F2303600B4B5A689B
:103B680002F0030242605A6802F0F00282605A686A
:103B780002F4E062C2605B68DB0803F4E06303619F
:103B8800034B1B6803F007030B60704700100240EB
:103B980000200240082808B50AD8002843D0013878
:103BA800072856D8DFE800F02B49552755555527E3
:103BB80010284ED1284B5A68186810F0807032D0FF
:103BC800C2F383412548D20348BF5A68405C41BFCD
:103BD8002349C2F34042895C224A5B684CBFB2FB6E
:103BE800F1F2214A5B0202FB00F01CD403234000DF
:103BF800B0FBF3F017E0BDE80840FFF7CBBE40F29A
:103C08000231154A136A1940B1F5817F1ED003F4B9
:103C18004073B3F5007F07D149F64040536A13F06B
:103C2800020F08BF002008BDB3F5407F11D113680B
:103C38004FF2244013F4003FF3E7FFF77DFF064BF4
:103C48005B68C3F3813301335B00D1E74FF4004075
:103C5800E9E70020E7E700BF00100240C09800082D
:103C6800BE98000800127A0000093D00036A026A43
:103C780070B522F001020262446882690D6822F080
:103C880073022A438D6823F002032B430C4DA8428C
:103C980003D005F50065A8420BD1CD6823F00803D1
:103CA8002B4324F44074D1E90556354323F004032B
:103CB8002C43446082614A684263036270BD00BF5E
:103CC800002C0140036A026A70B522F48072026215
:103CD8004468C2690D6822F073022A438D6823F490
:103CE800007343EA05230D4DA84203D005F500658E
:103CF800A8420DD1CD6823F4006343EA052324F4D8
:103D08004054D1E90556354323F4806344EA051449
:103D18004460C2614A68C263036270BD002C0140FE
:103D2800036A026A30B522F4805202624468C269AA
:103D38000D6822F4E64242EA05228D6823F4005316
:103D480043EA0533084DA84203D005F50065A842AB
:103D580004D14D6924F4804444EA85144460C26166
:103D68004A680264036230BD002C014090F83D307F
:103D7800012B24D10223134A80F83D300368934273
:103D880012D002F5006293420ED0B3F1804F0BD0EF
:103D9800A2F59832934207D002F58062934203D08D
:103DA80002F58062934204D19A6802F00702062A5B
:103DB80003D01A6842F001021A60002070470120FF
:103DC800704700BF002C014041F211120368196AC4
:103DD800114208D140F24442196A114202BF1A68DE
:103DE80022F001021A60012380F83D30002070475C
:103DF80090F83C200346012A4FF0020009D01A68C7
:103E080083F83D0051610020012283F83C0083F8CB
:103E18003D20704770477047036870B5DD681E69BC
:103E28000446B1070DD5AA070BD56FF002021A6137
:103E3800012202779B699B0769D001F0CFFA002322
:103E48002377710710D56A070ED56FF0040223682F
:103E580020461A61022222779B6913F4407F5CD0C6
:103E680001F0BCFA0023237733070FD528070DD5B7
:103E78006FF00802236820461A6104222277DB6962
:103E8800990750D001F0AAFA00232377F20610D53B
:103E9800EB060ED56FF01002236820461A6108223F
:103EA8002277DB6913F4407F43D001F097FA0023AF
:103EB8002377F00708D5E90706D56FF001022368D4
:103EC80020461A6101F067FA320608D52B0606D596
:103ED8006FF08002236820461A6100F034FB7006F8
:103EE80008D5690606D56FF04002236820461A6196
:103EF800FFF791FFB20622D5AB0620D56FF020025E
:103F080023682046BDE870401A6100F01BBB01F031
:103F180063FA2046FFF77EFF91E701F05DFA20463D
:103F2800FFF778FF9EE701F057FA2046FFF772FF88
:103F3800AAE701F051FA2046FFF76CFFB7E770BD1A
:103F48001D4A0368904212D002F5006290420ED0DA
:103F5800B0F1804F0BD0A2F59832904207D002F50D
:103F68008062904203D002F58062904207D14A688D
:103F780023F070031343CA6823F4407313434A6958
:103F880023F08003134303608B68C3620B6883626A
:103F9800094B984203D003F50063984201D10B699D
:103FA8000363012343610369DB0742BF036923F00D
:103FB80001030361704700BF002C014010B504469F
:103FC80030B390F83D3003F0FF021BB980F83C2075
:103FD80002F07CFA0223206884F83D30211DFFF7A7
:103FE800AFFF0123002084F8463084F83E3084F87F
:103FF8003F3084F8403084F8413084F8423084F807
:10400800433084F8443084F8453084F83D3010BD9E
:104018000120FCE7036A026A70B522F0100202620E
:10402800446882690D6822F4E64242EA05228D68F6
:1040380023F0200343EA05130D4DA84203D005F5EC
:104048000065A8420DD1CD6823F0800343EA05132B
:1040580024F44064D1E90556354323F0400344EA8B
:104068008504446082614A688263036270BD00BF50
:10407800002C014010B590F83C300446012B1DD0AF
:10408800082A17D007D862B1042A0FD001200023CC
:1040980084F83C3010BD0C2AF8D10068FFF740FEC8
:1040A80002E00068FFF7E2FD0020F0E70068FFF794
:1040B800B1FFF9E70068FFF705FEF5E70220E9E739
:1040C80038B590F83C300446012B4FD00120082A1F
:1040D80084F83C003AD006D8BAB1042A26D0002386
:1040E80084F83C3038BD0C2AF9D12068FFF718FE57
:1040F800C3690A6943F40063C361C36923F4806335
:10410800C361C36943EA02232EE02068FFF7AEFDCE
:1041180083690A6943F008038361836923F0040310
:1041280083618369134383610020D8E72068FFF720
:1041380071FF83690A6943F400638361836923F427
:1041480080638361836943EA0223ECE72068FFF711
:10415800B9FDC3690A6943F00803C361C36923F061
:104168000403C361C3691343C361DDE70220B9E7F0
:1041780070B5056A046A154E24F001040462B04261
:1041880084691ED006F50066B0421AD0B0F1804F9F
:1041980017D0A6F59836B04213D006F58066B0421F
:1041A8000FD006F58066B0420BD044F0010263F3ED
:1041B800071201F00A0125F00A031943826101621E
:1041C80070BD24F003042243F1E700BF002C014036
:1041D800F8B590F83C300546012B0C4600F081807C
:1041E8000120082A85F83C005BD006D842B3042A8F
:1041F80035D0002385F83C30F8BD0C2AF9D1D1E937
:1042080000272B68CE68186A196A120321F48051B6
:104218001962D96920F4005021F4407141EA07215C
:1042280002F4005266F30F310243D9611A62DA6967
:10423800A16822F44062DA61DA6942EA01224EE0BA
:104248002868CB6806C9FFF793FF8369A26823F043
:104258000C0383618369134383610020C9E72B68DA
:10426800D1E90027186ACE68196A120121F01001F5
:104278001962996920F0A00021F4407141EA0721F0
:1042880002F0A00266F30F31024399611A629A693B
:10429800A16822F440629A619A6942EA01229A610D
:1042A800DBE72B68D1E90021186A1E6AE76826F463
:1042B80080761E62DE69120226F00306314320F47E
:1042C800007002F4007267F307110243D9611A62A1
:1042D800DA69A16822F00C02DA61DA690A43DA6164
:1042E800BBE7022088E710B50124036A01F01F012B
:1042F8008C4023EA04030362036A8A401A43026279
:1043080010BD000008B529B990F83E30012B1ED029
:10431800012034E0042907D190F83F30012BF7D170
:10432800022380F83F3015E008290CBF90F8403090
:1043380090F84130013B18BF0123002BE8D102233C
:1043480008290CBF80F8403080F8413002E0022391
:1043580080F83E3000680122FFF7C5FF124B9842F3
:1043680003D003F5006398420AD1436C43F4004339
:104378004364836803F00703062B0FD1002008BDB0
:10438800B0F1804FF5D0094B9842F2D003F5806325
:104398009842EED003F580639842EAD0036843F070
:1043A80001030360EAE700BF002C0140000400405D
:1043B800FFF7A8BF08B5034689BB90F83E0093F8FD
:1043C8004220C0B20128D2B256D1012A26D10222F7
:1043D80000293AD183F83E2083F842201868012248
:1043E800FFF781FF254B984212D003F500639842EE
:1043F8000ED0B0F1804F0BD0A3F59833984207D078
:1044080003F58063984203D003F5806398422ED168
:10441800836803F00703062B29D1002008BD04296F
:1044280005D190F83F0093F84320C0B2CAE70829A5
:104438000BBF90F8400093F8410093F8442093F89C
:1044480045200CBFC0B2C0B2BCE7042904D183F830
:104458003F2083F84320C1E708290BBF83F8402099
:1044680083F8412083F8442083F84520B6E70368A1
:1044780043F001030360D0E70120CFE7002C01409F
:1044880010B50424036A01F00F018C4023EA0403E9
:104498000362036A8A401A43026210BD08B529B94B
:1044A80090F84230012B1DD0012046E0042907D1A5
:1044B80090F84330012BF7D1022380F8433014E001
:1044C800082907D190F84430012BEDD1022380F858
:1044D80044300AE090F84530012BE5D1022380F8FA
:1044E800453002E0022380F8423000680422FFF7DA
:1044F800C7FF436C43F400434364104B984212D007
:1045080003F5006398420ED0B0F1804F0BD0A3F5AD
:104518009833984207D003F58063984203D003F597
:104528008063984204D1836803F00703062B03D005
:10453800036843F001030360002008BD002C01401C
:10454800FFF7ACBF70477047026802F10C0353E8ED
:10455800003F23F490730C3242E8003102680029CE
:10456800F2D102F1140353E8003F23F0010302F1F2
:10457800140C4CE800310029F3D1036B012B0BD14B
:1045880002F10C0353E8003F23F0100302F10C0C76
:104598004CE800310029F3D1202380F84230002371
:1045A8000363704710B504460368C1681A6922F4AA
:1045B80040520A431A6182680069D96802436069F7
:1045C80021F4B05121F00C0102430A43DA605A6920
:1045D800A16922F440720A435A610E4A934215D1E6
:1045E800FFF7AAFA19234343626820689200B3FBD5
:1045F800F2F36422B3FBF2F102FB11331B013233F5
:10460800B3FBF2F303EB0113836010BDFFF784FAE9
:10461800E8E700BF00380140704710B5044648B3CA
:1046280090F8413003F0FF021BB980F84020FFF7F3
:10463800F3FF2423226884F84130D368204623F40A
:104648000053D360FFF7AEFF236800201A6922F4F5
:1046580090421A615A6922F02A025A61DA6842F4D1
:104668000052DA602023606484F8413084F84230D4
:10467800606310BD0120FCE710B5044668B390F8EC
:10468800413003F0FF021BB980F84020FFF7C4FF58
:104698002423226884F84130D368204623F4005349
:1046A800D360FFF77FFF236800201A6922F4904245
:1046B8001A615A6922F022025A615A6942F00802C4
:1046C8005A61DA6842F40052DA602023606484F8A0
:1046D800413084F84230606310BD0120FCE790F857
:1046E8004130202B10D189B182B1C2848284002349
:1046F800212201620168436480F84120CA68184693
:1047080042F08002CA60704702207047012070475B
:1047180008B50023406AC385C38402F003F908BDC5
:10472800704790F8423007B5222B42D18168026861
:10473800B1F5805F836A3FD1016900293FD1526892
:10474800C2F3080223F8022B8362C38D013B9BB29C
:10475800C385002B2DD10268D16821F02001D160DA
:10476800D16821F48071D160516921F00101516152
:10477800202280F842204363026B012A026828D174
:10478800036302F10C0353E8003F23F0100302F126
:104798000C0C4CE800310029F3D11368DB0605D571
:1047A80001911368019353680193019B818DFFF771
:1047B800B7FF03B05DF804FB39B9016929B952683C
:1047C800D2B21A70836A0133BEE7526802F07F02E0
:1047D800F7E702F0A1F8ECE7036873B51A68044636
:1047E8001607D9685D6908D1960668D58D0666D51D
:1047F80002B0BDE87040FFF794BF05F0010001F476
:10480800907505435BD0D60705D5CD0542BF636CCF
:1048180043F001036364530704D518B1636C43F094
:1048280002036364960704D518B1636C43F004036C
:104838006364150707D501F0200303431EBF636CAB
:1048480043F008036364636C002B32D0920604D5EE
:104858008B0602D52046FFF764FF26682046736959
:10486800626C03F0400302F0080253EA020522D00A
:10487800FFF76AFE73695E0618D5226802F1140311
:1048880053E8003F23F04003143242E80031002986
:10489800F3D1E06B50B1744B4363FEF787FD40B131
:1048A800E06B436B02B0BDE870401847204602F049
:1048B80039F802B070BD02F035F86564F9E7206B8D
:1048C800012840F09480D50640F19180C80640F157
:1048D8008E80002201921A6801925A680192019A08
:1048E8005A6952064DD5E16B0A68526892B2002A9D
:1048F800DFD0A08D9042DCD9E2858A69202A36D0A3
:1049080003F10C0252E8002F22F4807203F10C002C
:1049180040E800210029F3D103F1140252E8002FE6
:1049280022F0010203F1140040E800210029F3D12C
:1049380003F1140252E8002F22F0400203F11400A0
:1049480040E800210029F3D1202284F84220216385
:1049580003F10C0252E8002F22F0100203F10C00C0
:1049680040E800210029F3D1E06BFEF700FD0223A7
:104978006363E38DA18DC91A89B22046FFF7D0FE83
:1049880097E7E28DE18D92B289B2002991D0A18D8D
:10499800891A89B200298CD003F10C0252E8002F41
:1049A80022F4907203F10C0545E800200028F3D1A9
:1049B80003F1140252E8002F22F0010203F114055A
:1049C80045E800200028F3D1202284F84220206303
:1049D80003F10C0252E8002F22F0100203F10C053B
:1049E80045E800200028F3D102236363C5E71606D3
:1049F80028D50D0626D594F84120212A7FF459AFF1
:104A0800A168226AB1F5805F17D12169A9B932F886
:104A1800021BC1F3080159602262E28C013A92B28A
:104A2800E284002A7FF445AFDA6822F08002DA6077
:104A3800DA6842F04002DA603BE7511C21621278E2
:104A48005A60EAE750067FF534AF4A067FF531AF82
:104A5800DA68204622F04002DA60202384F84130E8
:104A680001F05DFF25E700BF1947000890F84030C6
:104A7800012B11D02423026880F84130D36823F039
:104A88000C0343F00803D360202380F8413000234F
:104A980080F84030184670470220704790F8403040
:104AA800012B11D02423026880F84130D36823F009
:104AB8000C0343F00403D360202380F84130002323
:104AC80080F84030184670470220704790F841201F
:104AD80090F84200104370470023C28543642223A4
:104AE8008285026980F84230816203681AB1DA6807
:104AF80042F48072DA605A69002042F001025A6179
:104B0800DA6842F02002DA60704770B590F84260C7
:104B1800202E07D141B13AB100240463FFF7DCFF2E
:104B2800204670BD0220FCE70120FAE7836810B533
:104B380004462BB10322014698470023C4E90233F7
:104B480010BD10B5044650F8103FDA6822F0010293
:104B5800DA60DA6822F00202DA60DA6822F0040227
:104B6800DA60DA6822F00802DA60DA6822F0100205
:104B7800DA60FFF729F92269136823F0010313604B
:104B8800012384F84E3084F84F3084F8503084F88C
:104B9800513084F8523084F8533084F8543084F813
:104BA800553010BD4B1E032B00D9FEE78900081FA6
:104BB800704700000139435C13F0100004D002294B
:104BC80016D80C4A32F81100DB0712D503290FD882
:104BD800DFE801F00205080B40F00100704740F0E3
:104BE8001000704740F48070704740F48050704760
:104BF800FEE77047D89800080139032900D9FEE775
:104C0800014B585C704700BFD4980008013903294C
:104C180000D9FEE7014B585C704700BFD0980008E8
:104C28002DE9F0410E460446FFF7BCFF06F10608E1
:104C380005463146204604EB0818FFF7DDFFD8F893
:104C480008302BB1C24323691A61DA680243DA607B
:104C5800771E04EB47039B880B2B49D8DFE803F04A
:104C680051181818060618184A4A4A2AE35DDE063B
:104C780004D5294604F11000FFF762FCE35DD8076C
:104C880036D5294604F11000BDE8F041FFF790BB86
:104C9800E35DD90604D5294604F11000FFF7FEFBB1
:104CA800E35DDA0724D5294604F11000BDE8F04198
:104CB800FFF728BB294604F11000FFF77BFB3146BC
:104CC8002046FFF7A3FF014606462046FFF772FF7E
:104CD80025692B6A1843D8F80830286243B1314651
:104CE8002046FFF789FFC3432B61EB681843E86050
:104CF800BDE8F081294604F11000BDE8F041FFF756
:104D080059BB23691B68DB07F2D404F11000BDE826
:104D1800F041FFF72BB870B5012504462946861CDB
:104D280036F8023F23B129462046FFF779FF0021D4
:104D38000135052DF4D1A36E3BB16FF00102236953
:104D48001A61DA6842F00102DA6049B123691B6826
:104D5800DB0705D404F11000BDE87040FFF706B882
:104D680070BD00002DE9F0438DB0044698460F460B
:104D7800FFF718FF4FF6FF7316460593054623699C
:104D8800C0B95B6B002206930123CDE902329DF87E
:104D98005030CDE90922079208920B9201920493B0
:104DA8000B2E1DD8DFE806F00F1545484A53555716
:104DB8005B596264042801D19B6BE3E708280CBFA8
:104DC800DB6B1B6CDEE705922A4605A904F110008F
:104DD80004E010232A46059305A9E018FFF74AF9CD
:104DE800013F04EB47039E8006B3B8F1FF3F1DD097
:104DF800404601F0BFFBA84264D140463249083E14
:104E080001F0A0F9032E05D8404602F04BFC002122
:104E180002F0BCFD40462C4901F0CEF910F4801F89
:104E28000CBF01221022E35D1343E3550DB0BDE82A
:104E3800F08320230593C7E73023FBE760232A4646
:104E480005A904F110000593FFF73AF9C8E77023A4
:104E5800F5E75023EEE74023ECE7022301932A46C7
:104E680001A904F11000FFF7B3F9B9E70A23F5E740
:104E78004046154901F0A0F910F4801000D0FEE773
:104E8800012304F110092A46019001A9484602931A
:104E9800FFF79EF939462046FFF7B8FE431EE25C4D
:104EA800014642F00102E2540B2204EB43039A80CC
:104EB80002232046CDE90133FFF774FE01A902461B
:104EC8004846D0E7FEE700BFD09A00080139032919
:104ED8009ABF00EB4100808800207047026960306B
:104EE800D36823F00103D360FFF720BE01211030FF
:104EF800FEF77EBF0369186800F00100704710B51F
:104F080002460C46FFF7F6FF80B9CB68DB070ED5E3
:104F1800CB68104623F00103CB60FFF7E7FF6FF083
:104F280001032361E36843F00103E36010BD104609
:104F3800BDE81040FFF7DABF0B460169013B8B6201
:104F4800FFF7DDBF1B4B984221D0B0F1804F20D036
:104F5800A3F5943398421ED003F5806398421CD081
:104F680003F5806398421AD003F58063984218D0FD
:104F780003F58063984216D003F59033984214D015
:104F88004FF6FF734FF6FF72934210D1FEE70023EE
:104F9800F8E701207047022070470320704704207B
:104FA800704705207047062070470720704700208B
:104FB800704700BF002C0140014670B5044651F807
:104FC800100FFFF7BFFF0546084601F0AFF90023B1
:104FD800084A04F1600642F82530E36004F1B005A0
:104FE800B54204D0103D2846FCF7ACF9F8E7204656
:104FF80070BD00BF10040020F8B504460846FFF74E
:10500800A1FF236903B1FEE71B4D04F10C0245F82B
:1050180020200E2204F110063046C4E90C33C4E9FE
:105028000E33C4E91033C4E91623216184F82C3007
:10503800A36484F84C3084F84D30E46001F0F4F84F
:1050480004F1600504F1B00728461035FFF76EFD3E
:10505800BD42F9D100234FF6FF72C4E90033C4E919
:105068000632C4E90833A360636180233046A36233
:10507800BDE8F840FEF7A2BF1004002010B586B0C6
:1050880014220446002101A802F073FF0023694698
:1050980001A80093FEF760FD206901F03FFA01289E
:1050A80002D002280FD0FEE7049CFEF735FDB4F5C8
:1050B800C06F05D00BD824F48074B4F5806F00D18C
:1050C800400006B010BD059CFEF736FDEFE7B4F5CD
:1050D800E06FF4E7012A38B505460C460BD0022AE2
:1050E80016D004B1013C29692846CC62EC61BDE8C0
:1050F8003840FFF704BFFFF7C1FF084BB0FBF3F0E0
:1051080044432A69230C93620133B4FBF3F4E8E7C0
:10511800FFF7B4FFB0FBF4F4F3E700BF40420F0021
:10512800036970B59D6A012A06460C4605F101051A
:1051380004D0022A0BD033695C6270BDFFF79EFF72
:10514800064BB0FBF3F36343B3FBF5F4F3E7FFF768
:1051580095FF6543B0FBF5F4EDE700BF40420F0053
:10516800F8B5054614461A46FFF71CFD2B69822A36
:105178009E6A074606F1010629D01FD8102A11D8C1
:1051880052BB4FF6FF722969CB6A934203D1B4F53B
:10519800803F08BF1C4637BB4C632846BDE8F84033
:1051A800FFF7ADBE812AECD12846FFF767FF124B07
:1051B800B0FBF3F06043B0FBF6F4E2E7832AE0D1FA
:1051C800DB6A03FB04436424B3FBF4F4D9E7284601
:1051D800FFF754FF6643EEE7DB6A03FB0443012451
:1051E8009440013CF0E7042F01D18C63D5E7082FE8
:1051F8000CBFCC630C64D0E740420F00034B186827
:1052080010B10430FEF708BE704700BF100400203C
:10521800FFF7F4BF034B586810B10430FEF7FCBD2C
:10522800704700BF10040020034B986810B1043089
:10523800FEF7F2BD704700BF10040020034BD8688A
:1052480010B10430FEF7E8BD704700BF100400201D
:10525800034B186910B10430FEF7DEBD704700BF7C
:1052680010040020034B586910B10430FEF7D4BD78
:10527800704700BF10040020034B986910B1043038
:10528800FEF7CABD704700BF10040020034BD86961
:1052980010B10430FEF7C0BD704700BF10040020F5
:1052A800FFF7F4BF0022C0E90022C0E902227047DC
:1052B800F8B504460E4600F1600500F1B00728462F
:1052C8001035FFF7EFFFBD42F9D1002320463146E4
:1052D8002361FFF791FE2046F8BD38B50023C0E9E9
:1052E8000033C0E902338B6804460D462BB1022215
:1052F8009847EB68E360AB68A360204638BD30B5DB
:10530800044687B002AD2846FFF7E7FF95E803009B
:10531800CDE9000194E8030085E80300DDE9000118
:10532800049BA268A360059B0492E26884E80300DA
:10533800E36028460592FCF705F807B030BD38B59C
:10534800836E04460D4660301BB1BDE83840FFF758
:10535800D6BFFFF7D4FFAB683BB16FF001022369FA
:105368001A61DA6842F00102DA6038BD826810B565
:105378000AB904F01DFAC368BDE81040184708B51B
:1053880000B9FEE700F04EFF0068836E13B160308D
:10539800FFF7ECFF08BDFFF7F2BF10B500B9FEE755
:1053A800037F013B072B10D8DFE803F004140F102C
:1053B8000F0F0F12012400F035FF0068063400EBD0
:1053C800041083680BB1FFF7D1FF10BD0324F2E787
:1053D8000424F0E70224EEE7FFF7DFBFFFF7DDBFA5
:1053E80002F0DEBB02F0E4BB88B006285AD8DFE83A
:1053F80000F004111D2935414D002B4B2B489A69AB
:1054080042F004029A619B6903F004030193019B33
:1054180008B07047244B26489A6942F008029A61FE
:105428009B6903F008030293029BF1E71E4B214896
:105438009A6942F010029A619B6903F01003039382
:10544800039BE5E7184B1C489A6942F020029A61D1
:105458009B6903F020030493049BD9E7124B174878
:105468009A6942F040029A619B6903F040030593F0
:10547800059BCDE70C4B12489A6942F080029A616D
:105488009B6903F080030693069BC1E7064B0D4812
:105498009A6942F480729A619B6903F48073079356
:1054A800079BB5E70020B3E7001002400008014061
:1054B800000C014000100140001401400018014098
:1054C800001C01400020014008B5044900F074FEAA
:1054D800C0F3C430112800D9FEE708BD309E00088B
:1054E80041F20103984204D041F20203984202D0EB
:1054F800FEE71020704711207047000008B50749E3
:1055080000F05AFEC0F3C430012802D0022802D0AD
:10551800FEE7002008BD1020FCE700BF0C9E000835
:1055280002680A4B82B09A420AD103F5CE33DA698F
:1055380042F00052DA61DB6903F000530193019BEA
:10554800034B0449186802B000F0FCBD0074004029
:10555800280000200C9E0008F0B589B005460E46CC
:1055680017460021142203A802F003FD0023284651
:105578001449CDE9013300F0FDFD039000B328463E
:10558800FFF7BCFF012F04460BD03346002221460B
:1055980003A8FDF7B0FE98B9214603A8FDF76BFEF6
:1055A8000EE0094B03A81D60FDF744FE40B9CDE9A4
:1055B8000100224601A903A8FDF7B2FE0028E4D0A5
:1055C80009B0F0BD0C9E0008280000200268094BB5
:1055D8009A420DD103F5CE331A6942F000521A618E
:1055E8001A6922F000521A61DA6922F00052DA616F
:1055F800704700BF0074004010B5094986B00446E2
:1056080000F0B8FD019048B12046FFF777FF01464A
:1056180001A8FDF75FFE01A8FDF71FFE06B010BD4B
:105628000C9E000803681A4A84B0934211D1194BA2
:105638009A6942F400729A619B6903F400730193BA
:10564800019B154B1868C3041FD4144904B000F01B
:1056580079BD134A93420AD10E4B9A6942F480628B
:105668009A619B6903F480630293029BE9E70D4A00
:105678009342E6D1074B9A6942F400429A619B69CA
:1056880003F400430393039BDBE704B0704700BFB8
:10569800002401400010024028000020309E00082D
:1056A80000280140003C014003681A4A93420DD18A
:1056B800194BDA6842F40072DA60DA6822F4007290
:1056C800DA609A6922F400729A617047134A934229
:1056D80010D1114BDA6842F48062DA60DA6822F499
:1056E8008062DA609A6922F480629A619A6922F487
:1056F8008062E9E70A4A9342E7D1074BDA6842F445
:105708000042DA60DA6822F40042DA609A6922F428
:105718000042D9E70024014000100240002801405F
:10572800003C0140F0B593B004463022002106A8A1
:1057380002F01FFC0023E204CDE903330593ADF822
:10574800063002935CD541F202039C4258D8354B8F
:1057580020460693FFF7C4FE0726054600230127C7
:105768004FF46022CDE907338DF824308DF82C30C2
:105778000C9310930E938DF83C302B4B06A80A9788
:105788000D921C60FDF744FB002845D103A906A82B
:10579800CDE903570596FDF7F7F900283CD106A88F
:1057A800FDF73EFC002837D106A8FDF7A9FA002826
:1057B80032D10A2106A8FDF73FF968BB06A8FDF714
:1057C80061FA830505D506A8FDF7DAF980B2ADF8C8
:1057D800060006A8FDF70AFCF0B906A8FDF7A6FB27
:1057E800D0B9069A0F4B9A4202D010498A4203D187
:1057F8009A6822F400029A60BDF8060080B20CE0B4
:105808000B49204600F0B6FC02A906902046FFF797
:105818005BFE069B054613B9002013B0F0BD0226B7
:105828009CE700BF00240140280000200028014018
:10583800309E00082DE9F3478A4624499946904648
:10584800064600F097FCFFF77DFB214F054657F809
:10585800203073B9B020FFF7C3FD1C490446304619
:1058680000F088FC01462046FFF722FD57F8253056
:105878001C60164930461C6800F09EFCC0F3C43515
:1058880029462046FFF722FB0428074607D00023B5
:1058980004220093294633462046FFF763FA022282
:1058A80051462046FFF716FC4B46424629462046FD
:1058B800FFF756FC042F05D0204602B0BDE8F0479C
:1058C800FFF729BA02B0BDE8F08700BFD09A0008F8
:1058D80010040020F8B51349064600F04BFCFFF70A
:1058E80031FB114F054657F8203073B9B020FFF748
:1058F80077FD0C490446304600F03CFC0146204642
:10590800FFF7D6FC57F825301C601C6844B12046C8
:10591800FFF752FB2046BDE8F840B021FFF762BD13
:10592800F8BD00BFD09A00081004002037B54FF02A
:10593800E025FDF77BF8AB6904460093FDF776F8A0
:10594800AB698442019369694FF47A7301F10101EB
:1059580008D0019A8A1A5A43B2FBF1F203FB0020DD
:1059680003B030BD009A8A1A5A43B2FBF1F203FB26
:105978000420F5E7FDF75AB8704708B5FDF74AF86F
:10598800FDF743FCFFF7F8FF08BD70470F4B84B0E5
:10599800DA6942F08052DA61DA6902F080520192E3
:1059A800019A9A6942F001029A619A6902F0010229
:1059B8000292029A5A6942F040025A615B6903F006
:1059C80040030393039B04B0704700BF00100240DC
:1059D8000C4BD3F8FC20D2015EBFD3F8FC2042F078
:1059E8008072C3F8FC200022074B5A601A6842F004
:1059F80001021A6000BF00BF00BF5868B0FA80F00B
:105A08004009704700ED00E0001000E008B5FFF71E
:105A1800BDFFFFF7DDFFFCF7EBFFFFF7B6FF01F077
:105A280029F8BDE808400148FDF7F4BB2C00002028
:105A38000023C0E90033C0E9023370472DE9F04381
:105A4800164600270A468BB0012A07F101046ED1D9
:105A5800CDE902130023FF2998BF02461D461C46C4
:105A68004FF0010C88BF021D0CFA03FE714505D1E9
:105A78001D46FF294FEA830488BF203C0133102BC1
:105A8800F2D10F231268A34013400822A240934288
:105A980050D10123C268AB4093430CBF01230223BA
:105AA80004930323142402A90593FDF7EBFC0023B8
:105AB800FFB27C43DFF88480D6F80890043406AD42
:105AC80006934444C5E901330993B9F1000F33D073
